{
	"my-hardhat-project/SMARTCONTRACT/ProofOfWork.sol": {
		"ProofOfWork": {
			"abi": [
				{
					"inputs": [],
					"stateMutability": "nonpayable",
					"type": "constructor"
				},
				{
					"inputs": [
						{
							"internalType": "uint256",
							"name": "nonce",
							"type": "uint256"
						}
					],
					"name": "getHash",
					"outputs": [
						{
							"internalType": "bytes32",
							"name": "",
							"type": "bytes32"
						}
					],
					"stateMutability": "view",
					"type": "function"
				},
				{
					"inputs": [],
					"name": "lastProof",
					"outputs": [
						{
							"internalType": "uint256",
							"name": "",
							"type": "uint256"
						}
					],
					"stateMutability": "view",
					"type": "function"
				},
				{
					"inputs": [
						{
							"internalType": "uint256",
							"name": "nonce",
							"type": "uint256"
						}
					],
					"name": "proofOfWork",
					"outputs": [
						{
							"internalType": "bool",
							"name": "",
							"type": "bool"
						}
					],
					"stateMutability": "nonpayable",
					"type": "function"
				}
			],
			"devdoc": {
				"kind": "dev",
				"methods": {},
				"version": 1
			},
			"evm": {
				"assembly": "    /* \"my-hardhat-project/SMARTCONTRACT/ProofOfWork.sol\":86:935  contract ProofOfWork {... */\n  mstore(0x40, 0x80)\n    /* \"my-hardhat-project/SMARTCONTRACT/ProofOfWork.sol\":172:254  constructor() {... */\n  callvalue\n  dup1\n  iszero\n  tag_1\n  jumpi\n  0x00\n  dup1\n  revert\ntag_1:\n  pop\n    /* \"my-hardhat-project/SMARTCONTRACT/ProofOfWork.sol\":246:247  1 */\n  0x01\n    /* \"my-hardhat-project/SMARTCONTRACT/ProofOfWork.sol\":234:243  lastProof */\n  0x00\n    /* \"my-hardhat-project/SMARTCONTRACT/ProofOfWork.sol\":234:247  lastProof = 1 */\n  dup2\n  swap1\n  sstore\n  pop\n    /* \"my-hardhat-project/SMARTCONTRACT/ProofOfWork.sol\":86:935  contract ProofOfWork {... */\n  dataSize(sub_0)\n  dup1\n  dataOffset(sub_0)\n  0x00\n  codecopy\n  0x00\n  return\nstop\n\nsub_0: assembly {\n        /* \"my-hardhat-project/SMARTCONTRACT/ProofOfWork.sol\":86:935  contract ProofOfWork {... */\n      mstore(0x40, 0x80)\n      callvalue\n      dup1\n      iszero\n      tag_1\n      jumpi\n      0x00\n      dup1\n      revert\n    tag_1:\n      pop\n      jumpi(tag_2, lt(calldatasize, 0x04))\n      shr(0xe0, calldataload(0x00))\n      dup1\n      0x59d6b35b\n      eq\n      tag_3\n      jumpi\n      dup1\n      0x5c10fe08\n      eq\n      tag_4\n      jumpi\n      dup1\n      0x6b2fafa9\n      eq\n      tag_5\n      jumpi\n    tag_2:\n      0x00\n      dup1\n      revert\n        /* \"my-hardhat-project/SMARTCONTRACT/ProofOfWork.sol\":141:165  uint256 public lastProof */\n    tag_3:\n      tag_6\n      tag_7\n      jump\t// in\n    tag_6:\n      mload(0x40)\n      tag_8\n      swap2\n      swap1\n      tag_9\n      jump\t// in\n    tag_8:\n      mload(0x40)\n      dup1\n      swap2\n      sub\n      swap1\n      return\n        /* \"my-hardhat-project/SMARTCONTRACT/ProofOfWork.sol\":304:726  function proofOfWork(uint256 nonce) public returns (bool) {... */\n    tag_4:\n      tag_10\n      0x04\n      dup1\n      calldatasize\n      sub\n      dup2\n      add\n      swap1\n      tag_11\n      swap2\n      swap1\n      tag_12\n      jump\t// in\n    tag_11:\n      tag_13\n      jump\t// in\n    tag_10:\n      mload(0x40)\n      tag_14\n      swap2\n      swap1\n      tag_15\n      jump\t// in\n    tag_14:\n      mload(0x40)\n      dup1\n      swap2\n      sub\n      swap1\n      return\n        /* \"my-hardhat-project/SMARTCONTRACT/ProofOfWork.sol\":802:933  function getHash(uint256 nonce) public view returns (bytes32) {... */\n    tag_5:\n      tag_16\n      0x04\n      dup1\n      calldatasize\n      sub\n      dup2\n      add\n      swap1\n      tag_17\n      swap2\n      swap1\n      tag_12\n      jump\t// in\n    tag_17:\n      tag_18\n      jump\t// in\n    tag_16:\n      mload(0x40)\n      tag_19\n      swap2\n      swap1\n      tag_20\n      jump\t// in\n    tag_19:\n      mload(0x40)\n      dup1\n      swap2\n      sub\n      swap1\n      return\n        /* \"my-hardhat-project/SMARTCONTRACT/ProofOfWork.sol\":141:165  uint256 public lastProof */\n    tag_7:\n      sload(0x00)\n      dup2\n      jump\t// out\n        /* \"my-hardhat-project/SMARTCONTRACT/ProofOfWork.sol\":304:726  function proofOfWork(uint256 nonce) public returns (bool) {... */\n    tag_13:\n        /* \"my-hardhat-project/SMARTCONTRACT/ProofOfWork.sol\":356:360  bool */\n      0x00\n        /* \"my-hardhat-project/SMARTCONTRACT/ProofOfWork.sol\":471:483  bytes32 hash */\n      dup1\n        /* \"my-hardhat-project/SMARTCONTRACT/ProofOfWork.sol\":513:522  lastProof */\n      sload(0x00)\n        /* \"my-hardhat-project/SMARTCONTRACT/ProofOfWork.sol\":524:529  nonce */\n      dup4\n        /* \"my-hardhat-project/SMARTCONTRACT/ProofOfWork.sol\":496:530  abi.encodePacked(lastProof, nonce) */\n      add(0x20, mload(0x40))\n      tag_22\n      swap3\n      swap2\n      swap1\n      tag_23\n      jump\t// in\n    tag_22:\n      mload(0x40)\n      0x20\n      dup2\n      dup4\n      sub\n      sub\n      dup2\n      mstore\n      swap1\n      0x40\n      mstore\n        /* \"my-hardhat-project/SMARTCONTRACT/ProofOfWork.sol\":486:531  keccak256(abi.encodePacked(lastProof, nonce)) */\n      dup1\n      mload\n      swap1\n      0x20\n      add\n      keccak256\n        /* \"my-hardhat-project/SMARTCONTRACT/ProofOfWork.sol\":471:531  bytes32 hash = keccak256(abi.encodePacked(lastProof, nonce)) */\n      swap1\n      pop\n        /* \"my-hardhat-project/SMARTCONTRACT/ProofOfWork.sol\":570:571  0 */\n      0x00\n        /* \"my-hardhat-project/SMARTCONTRACT/ProofOfWork.sol\":561:566  10000 */\n      0x2710\n        /* \"my-hardhat-project/SMARTCONTRACT/ProofOfWork.sol\":553:557  hash */\n      dup3\n        /* \"my-hardhat-project/SMARTCONTRACT/ProofOfWork.sol\":545:558  uint256(hash) */\n      0x00\n      shr\n        /* \"my-hardhat-project/SMARTCONTRACT/ProofOfWork.sol\":545:566  uint256(hash) % 10000 */\n      tag_24\n      swap2\n      swap1\n      tag_25\n      jump\t// in\n    tag_24:\n        /* \"my-hardhat-project/SMARTCONTRACT/ProofOfWork.sol\":545:571  uint256(hash) % 10000 == 0 */\n      sub\n        /* \"my-hardhat-project/SMARTCONTRACT/ProofOfWork.sol\":541:720  if (uint256(hash) % 10000 == 0) {... */\n      tag_26\n      jumpi\n        /* \"my-hardhat-project/SMARTCONTRACT/ProofOfWork.sol\":636:641  nonce */\n      dup3\n        /* \"my-hardhat-project/SMARTCONTRACT/ProofOfWork.sol\":624:633  lastProof */\n      0x00\n        /* \"my-hardhat-project/SMARTCONTRACT/ProofOfWork.sol\":624:641  lastProof = nonce */\n      dup2\n      swap1\n      sstore\n      pop\n        /* \"my-hardhat-project/SMARTCONTRACT/ProofOfWork.sol\":662:666  true */\n      0x01\n        /* \"my-hardhat-project/SMARTCONTRACT/ProofOfWork.sol\":655:666  return true */\n      swap2\n      pop\n      pop\n      jump(tag_21)\n        /* \"my-hardhat-project/SMARTCONTRACT/ProofOfWork.sol\":541:720  if (uint256(hash) % 10000 == 0) {... */\n    tag_26:\n        /* \"my-hardhat-project/SMARTCONTRACT/ProofOfWork.sol\":704:709  false */\n      0x00\n        /* \"my-hardhat-project/SMARTCONTRACT/ProofOfWork.sol\":697:709  return false */\n      swap2\n      pop\n      pop\n        /* \"my-hardhat-project/SMARTCONTRACT/ProofOfWork.sol\":304:726  function proofOfWork(uint256 nonce) public returns (bool) {... */\n    tag_21:\n      swap2\n      swap1\n      pop\n      jump\t// out\n        /* \"my-hardhat-project/SMARTCONTRACT/ProofOfWork.sol\":802:933  function getHash(uint256 nonce) public view returns (bytes32) {... */\n    tag_18:\n        /* \"my-hardhat-project/SMARTCONTRACT/ProofOfWork.sol\":855:862  bytes32 */\n      0x00\n        /* \"my-hardhat-project/SMARTCONTRACT/ProofOfWork.sol\":908:917  lastProof */\n      dup1\n      sload\n        /* \"my-hardhat-project/SMARTCONTRACT/ProofOfWork.sol\":919:924  nonce */\n      dup3\n        /* \"my-hardhat-project/SMARTCONTRACT/ProofOfWork.sol\":891:925  abi.encodePacked(lastProof, nonce) */\n      add(0x20, mload(0x40))\n      tag_29\n      swap3\n      swap2\n      swap1\n      tag_23\n      jump\t// in\n    tag_29:\n      mload(0x40)\n      0x20\n      dup2\n      dup4\n      sub\n      sub\n      dup2\n      mstore\n      swap1\n      0x40\n      mstore\n        /* \"my-hardhat-project/SMARTCONTRACT/ProofOfWork.sol\":881:926  keccak256(abi.encodePacked(lastProof, nonce)) */\n      dup1\n      mload\n      swap1\n      0x20\n      add\n      keccak256\n        /* \"my-hardhat-project/SMARTCONTRACT/ProofOfWork.sol\":874:926  return keccak256(abi.encodePacked(lastProof, nonce)) */\n      swap1\n      pop\n        /* \"my-hardhat-project/SMARTCONTRACT/ProofOfWork.sol\":802:933  function getHash(uint256 nonce) public view returns (bytes32) {... */\n      swap2\n      swap1\n      pop\n      jump\t// out\n        /* \"#utility.yul\":7:84   */\n    tag_30:\n        /* \"#utility.yul\":44:51   */\n      0x00\n        /* \"#utility.yul\":73:78   */\n      dup2\n        /* \"#utility.yul\":62:78   */\n      swap1\n      pop\n        /* \"#utility.yul\":7:84   */\n      swap2\n      swap1\n      pop\n      jump\t// out\n        /* \"#utility.yul\":90:208   */\n    tag_31:\n        /* \"#utility.yul\":177:201   */\n      tag_47\n        /* \"#utility.yul\":195:200   */\n      dup2\n        /* \"#utility.yul\":177:201   */\n      tag_30\n      jump\t// in\n    tag_47:\n        /* \"#utility.yul\":172:175   */\n      dup3\n        /* \"#utility.yul\":165:202   */\n      mstore\n        /* \"#utility.yul\":90:208   */\n      pop\n      pop\n      jump\t// out\n        /* \"#utility.yul\":214:436   */\n    tag_9:\n        /* \"#utility.yul\":307:311   */\n      0x00\n        /* \"#utility.yul\":345:347   */\n      0x20\n        /* \"#utility.yul\":334:343   */\n      dup3\n        /* \"#utility.yul\":330:348   */\n      add\n        /* \"#utility.yul\":322:348   */\n      swap1\n      pop\n        /* \"#utility.yul\":358:429   */\n      tag_49\n        /* \"#utility.yul\":426:427   */\n      0x00\n        /* \"#utility.yul\":415:424   */\n      dup4\n        /* \"#utility.yul\":411:428   */\n      add\n        /* \"#utility.yul\":402:408   */\n      dup5\n        /* \"#utility.yul\":358:429   */\n      tag_31\n      jump\t// in\n    tag_49:\n        /* \"#utility.yul\":214:436   */\n      swap3\n      swap2\n      pop\n      pop\n      jump\t// out\n        /* \"#utility.yul\":523:640   */\n    tag_33:\n        /* \"#utility.yul\":632:633   */\n      0x00\n        /* \"#utility.yul\":629:630   */\n      dup1\n        /* \"#utility.yul\":622:634   */\n      revert\n        /* \"#utility.yul\":769:891   */\n    tag_35:\n        /* \"#utility.yul\":842:866   */\n      tag_54\n        /* \"#utility.yul\":860:865   */\n      dup2\n        /* \"#utility.yul\":842:866   */\n      tag_30\n      jump\t// in\n    tag_54:\n        /* \"#utility.yul\":835:840   */\n      dup2\n        /* \"#utility.yul\":832:867   */\n      eq\n        /* \"#utility.yul\":822:885   */\n      tag_55\n      jumpi\n        /* \"#utility.yul\":881:882   */\n      0x00\n        /* \"#utility.yul\":878:879   */\n      dup1\n        /* \"#utility.yul\":871:883   */\n      revert\n        /* \"#utility.yul\":822:885   */\n    tag_55:\n        /* \"#utility.yul\":769:891   */\n      pop\n      jump\t// out\n        /* \"#utility.yul\":897:1036   */\n    tag_36:\n        /* \"#utility.yul\":943:948   */\n      0x00\n        /* \"#utility.yul\":981:987   */\n      dup2\n        /* \"#utility.yul\":968:988   */\n      calldataload\n        /* \"#utility.yul\":959:988   */\n      swap1\n      pop\n        /* \"#utility.yul\":997:1030   */\n      tag_57\n        /* \"#utility.yul\":1024:1029   */\n      dup2\n        /* \"#utility.yul\":997:1030   */\n      tag_35\n      jump\t// in\n    tag_57:\n        /* \"#utility.yul\":897:1036   */\n      swap3\n      swap2\n      pop\n      pop\n      jump\t// out\n        /* \"#utility.yul\":1042:1371   */\n    tag_12:\n        /* \"#utility.yul\":1101:1107   */\n      0x00\n        /* \"#utility.yul\":1150:1152   */\n      0x20\n        /* \"#utility.yul\":1138:1147   */\n      dup3\n        /* \"#utility.yul\":1129:1136   */\n      dup5\n        /* \"#utility.yul\":1125:1148   */\n      sub\n        /* \"#utility.yul\":1121:1153   */\n      slt\n        /* \"#utility.yul\":1118:1237   */\n      iszero\n      tag_59\n      jumpi\n        /* \"#utility.yul\":1156:1235   */\n      tag_60\n      tag_33\n      jump\t// in\n    tag_60:\n        /* \"#utility.yul\":1118:1237   */\n    tag_59:\n        /* \"#utility.yul\":1276:1277   */\n      0x00\n        /* \"#utility.yul\":1301:1354   */\n      tag_61\n        /* \"#utility.yul\":1346:1353   */\n      dup5\n        /* \"#utility.yul\":1337:1343   */\n      dup3\n        /* \"#utility.yul\":1326:1335   */\n      dup6\n        /* \"#utility.yul\":1322:1344   */\n      add\n        /* \"#utility.yul\":1301:1354   */\n      tag_36\n      jump\t// in\n    tag_61:\n        /* \"#utility.yul\":1291:1354   */\n      swap2\n      pop\n        /* \"#utility.yul\":1247:1364   */\n      pop\n        /* \"#utility.yul\":1042:1371   */\n      swap3\n      swap2\n      pop\n      pop\n      jump\t// out\n        /* \"#utility.yul\":1377:1467   */\n    tag_37:\n        /* \"#utility.yul\":1411:1418   */\n      0x00\n        /* \"#utility.yul\":1454:1459   */\n      dup2\n        /* \"#utility.yul\":1447:1460   */\n      iszero\n        /* \"#utility.yul\":1440:1461   */\n      iszero\n        /* \"#utility.yul\":1429:1461   */\n      swap1\n      pop\n        /* \"#utility.yul\":1377:1467   */\n      swap2\n      swap1\n      pop\n      jump\t// out\n        /* \"#utility.yul\":1473:1582   */\n    tag_38:\n        /* \"#utility.yul\":1554:1575   */\n      tag_64\n        /* \"#utility.yul\":1569:1574   */\n      dup2\n        /* \"#utility.yul\":1554:1575   */\n      tag_37\n      jump\t// in\n    tag_64:\n        /* \"#utility.yul\":1549:1552   */\n      dup3\n        /* \"#utility.yul\":1542:1576   */\n      mstore\n        /* \"#utility.yul\":1473:1582   */\n      pop\n      pop\n      jump\t// out\n        /* \"#utility.yul\":1588:1798   */\n    tag_15:\n        /* \"#utility.yul\":1675:1679   */\n      0x00\n        /* \"#utility.yul\":1713:1715   */\n      0x20\n        /* \"#utility.yul\":1702:1711   */\n      dup3\n        /* \"#utility.yul\":1698:1716   */\n      add\n        /* \"#utility.yul\":1690:1716   */\n      swap1\n      pop\n        /* \"#utility.yul\":1726:1791   */\n      tag_66\n        /* \"#utility.yul\":1788:1789   */\n      0x00\n        /* \"#utility.yul\":1777:1786   */\n      dup4\n        /* \"#utility.yul\":1773:1790   */\n      add\n        /* \"#utility.yul\":1764:1770   */\n      dup5\n        /* \"#utility.yul\":1726:1791   */\n      tag_38\n      jump\t// in\n    tag_66:\n        /* \"#utility.yul\":1588:1798   */\n      swap3\n      swap2\n      pop\n      pop\n      jump\t// out\n        /* \"#utility.yul\":1804:1881   */\n    tag_39:\n        /* \"#utility.yul\":1841:1848   */\n      0x00\n        /* \"#utility.yul\":1870:1875   */\n      dup2\n        /* \"#utility.yul\":1859:1875   */\n      swap1\n      pop\n        /* \"#utility.yul\":1804:1881   */\n      swap2\n      swap1\n      pop\n      jump\t// out\n        /* \"#utility.yul\":1887:2005   */\n    tag_40:\n        /* \"#utility.yul\":1974:1998   */\n      tag_69\n        /* \"#utility.yul\":1992:1997   */\n      dup2\n        /* \"#utility.yul\":1974:1998   */\n      tag_39\n      jump\t// in\n    tag_69:\n        /* \"#utility.yul\":1969:1972   */\n      dup3\n        /* \"#utility.yul\":1962:1999   */\n      mstore\n        /* \"#utility.yul\":1887:2005   */\n      pop\n      pop\n      jump\t// out\n        /* \"#utility.yul\":2011:2233   */\n    tag_20:\n        /* \"#utility.yul\":2104:2108   */\n      0x00\n        /* \"#utility.yul\":2142:2144   */\n      0x20\n        /* \"#utility.yul\":2131:2140   */\n      dup3\n        /* \"#utility.yul\":2127:2145   */\n      add\n        /* \"#utility.yul\":2119:2145   */\n      swap1\n      pop\n        /* \"#utility.yul\":2155:2226   */\n      tag_71\n        /* \"#utility.yul\":2223:2224   */\n      0x00\n        /* \"#utility.yul\":2212:2221   */\n      dup4\n        /* \"#utility.yul\":2208:2225   */\n      add\n        /* \"#utility.yul\":2199:2205   */\n      dup5\n        /* \"#utility.yul\":2155:2226   */\n      tag_40\n      jump\t// in\n    tag_71:\n        /* \"#utility.yul\":2011:2233   */\n      swap3\n      swap2\n      pop\n      pop\n      jump\t// out\n        /* \"#utility.yul\":2239:2318   */\n    tag_41:\n        /* \"#utility.yul\":2278:2285   */\n      0x00\n        /* \"#utility.yul\":2307:2312   */\n      dup2\n        /* \"#utility.yul\":2296:2312   */\n      swap1\n      pop\n        /* \"#utility.yul\":2239:2318   */\n      swap2\n      swap1\n      pop\n      jump\t// out\n        /* \"#utility.yul\":2324:2481   */\n    tag_42:\n        /* \"#utility.yul\":2429:2474   */\n      tag_74\n        /* \"#utility.yul\":2449:2473   */\n      tag_75\n        /* \"#utility.yul\":2467:2472   */\n      dup3\n        /* \"#utility.yul\":2449:2473   */\n      tag_30\n      jump\t// in\n    tag_75:\n        /* \"#utility.yul\":2429:2474   */\n      tag_41\n      jump\t// in\n    tag_74:\n        /* \"#utility.yul\":2424:2427   */\n      dup3\n        /* \"#utility.yul\":2417:2475   */\n      mstore\n        /* \"#utility.yul\":2324:2481   */\n      pop\n      pop\n      jump\t// out\n        /* \"#utility.yul\":2487:2884   */\n    tag_23:\n        /* \"#utility.yul\":2627:2630   */\n      0x00\n        /* \"#utility.yul\":2642:2717   */\n      tag_77\n        /* \"#utility.yul\":2713:2716   */\n      dup3\n        /* \"#utility.yul\":2704:2710   */\n      dup6\n        /* \"#utility.yul\":2642:2717   */\n      tag_42\n      jump\t// in\n    tag_77:\n        /* \"#utility.yul\":2742:2744   */\n      0x20\n        /* \"#utility.yul\":2737:2740   */\n      dup3\n        /* \"#utility.yul\":2733:2745   */\n      add\n        /* \"#utility.yul\":2726:2745   */\n      swap2\n      pop\n        /* \"#utility.yul\":2755:2830   */\n      tag_78\n        /* \"#utility.yul\":2826:2829   */\n      dup3\n        /* \"#utility.yul\":2817:2823   */\n      dup5\n        /* \"#utility.yul\":2755:2830   */\n      tag_42\n      jump\t// in\n    tag_78:\n        /* \"#utility.yul\":2855:2857   */\n      0x20\n        /* \"#utility.yul\":2850:2853   */\n      dup3\n        /* \"#utility.yul\":2846:2858   */\n      add\n        /* \"#utility.yul\":2839:2858   */\n      swap2\n      pop\n        /* \"#utility.yul\":2875:2878   */\n      dup2\n        /* \"#utility.yul\":2868:2878   */\n      swap1\n      pop\n        /* \"#utility.yul\":2487:2884   */\n      swap4\n      swap3\n      pop\n      pop\n      pop\n      jump\t// out\n        /* \"#utility.yul\":2890:3070   */\n    tag_43:\n        /* \"#utility.yul\":2938:3015   */\n      0x4e487b7100000000000000000000000000000000000000000000000000000000\n        /* \"#utility.yul\":2935:2936   */\n      0x00\n        /* \"#utility.yul\":2928:3016   */\n      mstore\n        /* \"#utility.yul\":3035:3039   */\n      0x12\n        /* \"#utility.yul\":3032:3033   */\n      0x04\n        /* \"#utility.yul\":3025:3040   */\n      mstore\n        /* \"#utility.yul\":3059:3063   */\n      0x24\n        /* \"#utility.yul\":3056:3057   */\n      0x00\n        /* \"#utility.yul\":3049:3064   */\n      revert\n        /* \"#utility.yul\":3076:3252   */\n    tag_25:\n        /* \"#utility.yul\":3108:3109   */\n      0x00\n        /* \"#utility.yul\":3125:3145   */\n      tag_81\n        /* \"#utility.yul\":3143:3144   */\n      dup3\n        /* \"#utility.yul\":3125:3145   */\n      tag_30\n      jump\t// in\n    tag_81:\n        /* \"#utility.yul\":3120:3145   */\n      swap2\n      pop\n        /* \"#utility.yul\":3159:3179   */\n      tag_82\n        /* \"#utility.yul\":3177:3178   */\n      dup4\n        /* \"#utility.yul\":3159:3179   */\n      tag_30\n      jump\t// in\n    tag_82:\n        /* \"#utility.yul\":3154:3179   */\n      swap3\n      pop\n        /* \"#utility.yul\":3198:3199   */\n      dup3\n        /* \"#utility.yul\":3188:3223   */\n      tag_83\n      jumpi\n        /* \"#utility.yul\":3203:3221   */\n      tag_84\n      tag_43\n      jump\t// in\n    tag_84:\n        /* \"#utility.yul\":3188:3223   */\n    tag_83:\n        /* \"#utility.yul\":3244:3245   */\n      dup3\n        /* \"#utility.yul\":3241:3242   */\n      dup3\n        /* \"#utility.yul\":3237:3246   */\n      mod\n        /* \"#utility.yul\":3232:3246   */\n      swap1\n      pop\n        /* \"#utility.yul\":3076:3252   */\n      swap3\n      swap2\n      pop\n      pop\n      jump\t// out\n\n    auxdata: 0xa2646970667358221220e871c19ce4fe15fdb99f04fd9c952c7fd4809a55e8001932cf16ad84c24ef60964736f6c634300081a0033\n}\n",
				"bytecode": {
					"linkReferences": {},
					"object": "6080604052348015600e575f80fd5b5060015f81905550610322806100235f395ff3fe608060405234801561000f575f80fd5b506004361061003f575f3560e01c806359d6b35b146100435780635c10fe08146100615780636b2fafa914610091575b5f80fd5b61004b6100c1565b604051610058919061016e565b60405180910390f35b61007b600480360381019061007691906101b5565b6100c6565b60405161008891906101fa565b60405180910390f35b6100ab60048036038101906100a691906101b5565b610124565b6040516100b8919061022b565b60405180910390f35b5f5481565b5f805f54836040516020016100dc929190610264565b6040516020818303038152906040528051906020012090505f612710825f1c61010591906102bc565b0361011a57825f81905550600191505061011f565b5f9150505b919050565b5f805482604051602001610139929190610264565b604051602081830303815290604052805190602001209050919050565b5f819050919050565b61016881610156565b82525050565b5f6020820190506101815f83018461015f565b92915050565b5f80fd5b61019481610156565b811461019e575f80fd5b50565b5f813590506101af8161018b565b92915050565b5f602082840312156101ca576101c9610187565b5b5f6101d7848285016101a1565b91505092915050565b5f8115159050919050565b6101f4816101e0565b82525050565b5f60208201905061020d5f8301846101eb565b92915050565b5f819050919050565b61022581610213565b82525050565b5f60208201905061023e5f83018461021c565b92915050565b5f819050919050565b61025e61025982610156565b610244565b82525050565b5f61026f828561024d565b60208201915061027f828461024d565b6020820191508190509392505050565b7f4e487b71000000000000000000000000000000000000000000000000000000005f52601260045260245ffd5b5f6102c682610156565b91506102d183610156565b9250826102e1576102e061028f565b5b82820690509291505056fea2646970667358221220e871c19ce4fe15fdb99f04fd9c952c7fd4809a55e8001932cf16ad84c24ef60964736f6c634300081a0033",
					"opcodes": "PUSH1 0x80 PUSH1 0x40 MSTORE CALLVALUE DUP1 ISZERO PUSH1 0xE JUMPI PUSH0 DUP1 REVERT JUMPDEST POP PUSH1 0x1 PUSH0 DUP2 SWAP1 SSTORE POP PUSH2 0x322 DUP1 PUSH2 0x23 PUSH0 CODECOPY PUSH0 RETURN INVALID PUSH1 0x80 PUSH1 0x40 MSTORE CALLVALUE DUP1 ISZERO PUSH2 0xF JUMPI PUSH0 DUP1 REVERT JUMPDEST POP PUSH1 0x4 CALLDATASIZE LT PUSH2 0x3F JUMPI PUSH0 CALLDATALOAD PUSH1 0xE0 SHR DUP1 PUSH4 0x59D6B35B EQ PUSH2 0x43 JUMPI DUP1 PUSH4 0x5C10FE08 EQ PUSH2 0x61 JUMPI DUP1 PUSH4 0x6B2FAFA9 EQ PUSH2 0x91 JUMPI JUMPDEST PUSH0 DUP1 REVERT JUMPDEST PUSH2 0x4B PUSH2 0xC1 JUMP JUMPDEST PUSH1 0x40 MLOAD PUSH2 0x58 SWAP2 SWAP1 PUSH2 0x16E JUMP JUMPDEST PUSH1 0x40 MLOAD DUP1 SWAP2 SUB SWAP1 RETURN JUMPDEST PUSH2 0x7B PUSH1 0x4 DUP1 CALLDATASIZE SUB DUP2 ADD SWAP1 PUSH2 0x76 SWAP2 SWAP1 PUSH2 0x1B5 JUMP JUMPDEST PUSH2 0xC6 JUMP JUMPDEST PUSH1 0x40 MLOAD PUSH2 0x88 SWAP2 SWAP1 PUSH2 0x1FA JUMP JUMPDEST PUSH1 0x40 MLOAD DUP1 SWAP2 SUB SWAP1 RETURN JUMPDEST PUSH2 0xAB PUSH1 0x4 DUP1 CALLDATASIZE SUB DUP2 ADD SWAP1 PUSH2 0xA6 SWAP2 SWAP1 PUSH2 0x1B5 JUMP JUMPDEST PUSH2 0x124 JUMP JUMPDEST PUSH1 0x40 MLOAD PUSH2 0xB8 SWAP2 SWAP1 PUSH2 0x22B JUMP JUMPDEST PUSH1 0x40 MLOAD DUP1 SWAP2 SUB SWAP1 RETURN JUMPDEST PUSH0 SLOAD DUP2 JUMP JUMPDEST PUSH0 DUP1 PUSH0 SLOAD DUP4 PUSH1 0x40 MLOAD PUSH1 0x20 ADD PUSH2 0xDC SWAP3 SWAP2 SWAP1 PUSH2 0x264 JUMP JUMPDEST PUSH1 0x40 MLOAD PUSH1 0x20 DUP2 DUP4 SUB SUB DUP2 MSTORE SWAP1 PUSH1 0x40 MSTORE DUP1 MLOAD SWAP1 PUSH1 0x20 ADD KECCAK256 SWAP1 POP PUSH0 PUSH2 0x2710 DUP3 PUSH0 SHR PUSH2 0x105 SWAP2 SWAP1 PUSH2 0x2BC JUMP JUMPDEST SUB PUSH2 0x11A JUMPI DUP3 PUSH0 DUP2 SWAP1 SSTORE POP PUSH1 0x1 SWAP2 POP POP PUSH2 0x11F JUMP JUMPDEST PUSH0 SWAP2 POP POP JUMPDEST SWAP2 SWAP1 POP JUMP JUMPDEST PUSH0 DUP1 SLOAD DUP3 PUSH1 0x40 MLOAD PUSH1 0x20 ADD PUSH2 0x139 SWAP3 SWAP2 SWAP1 PUSH2 0x264 JUMP JUMPDEST PUSH1 0x40 MLOAD PUSH1 0x20 DUP2 DUP4 SUB SUB DUP2 MSTORE SWAP1 PUSH1 0x40 MSTORE DUP1 MLOAD SWAP1 PUSH1 0x20 ADD KECCAK256 SWAP1 POP SWAP2 SWAP1 POP JUMP JUMPDEST PUSH0 DUP2 SWAP1 POP SWAP2 SWAP1 POP JUMP JUMPDEST PUSH2 0x168 DUP2 PUSH2 0x156 JUMP JUMPDEST DUP3 MSTORE POP POP JUMP JUMPDEST PUSH0 PUSH1 0x20 DUP3 ADD SWAP1 POP PUSH2 0x181 PUSH0 DUP4 ADD DUP5 PUSH2 0x15F JUMP JUMPDEST SWAP3 SWAP2 POP POP JUMP JUMPDEST PUSH0 DUP1 REVERT JUMPDEST PUSH2 0x194 DUP2 PUSH2 0x156 JUMP JUMPDEST DUP2 EQ PUSH2 0x19E JUMPI PUSH0 DUP1 REVERT JUMPDEST POP JUMP JUMPDEST PUSH0 DUP2 CALLDATALOAD SWAP1 POP PUSH2 0x1AF DUP2 PUSH2 0x18B JUMP JUMPDEST SWAP3 SWAP2 POP POP JUMP JUMPDEST PUSH0 PUSH1 0x20 DUP3 DUP5 SUB SLT ISZERO PUSH2 0x1CA JUMPI PUSH2 0x1C9 PUSH2 0x187 JUMP JUMPDEST JUMPDEST PUSH0 PUSH2 0x1D7 DUP5 DUP3 DUP6 ADD PUSH2 0x1A1 JUMP JUMPDEST SWAP2 POP POP SWAP3 SWAP2 POP POP JUMP JUMPDEST PUSH0 DUP2 ISZERO ISZERO SWAP1 POP SWAP2 SWAP1 POP JUMP JUMPDEST PUSH2 0x1F4 DUP2 PUSH2 0x1E0 JUMP JUMPDEST DUP3 MSTORE POP POP JUMP JUMPDEST PUSH0 PUSH1 0x20 DUP3 ADD SWAP1 POP PUSH2 0x20D PUSH0 DUP4 ADD DUP5 PUSH2 0x1EB JUMP JUMPDEST SWAP3 SWAP2 POP POP JUMP JUMPDEST PUSH0 DUP2 SWAP1 POP SWAP2 SWAP1 POP JUMP JUMPDEST PUSH2 0x225 DUP2 PUSH2 0x213 JUMP JUMPDEST DUP3 MSTORE POP POP JUMP JUMPDEST PUSH0 PUSH1 0x20 DUP3 ADD SWAP1 POP PUSH2 0x23E PUSH0 DUP4 ADD DUP5 PUSH2 0x21C JUMP JUMPDEST SWAP3 SWAP2 POP POP JUMP JUMPDEST PUSH0 DUP2 SWAP1 POP SWAP2 SWAP1 POP JUMP JUMPDEST PUSH2 0x25E PUSH2 0x259 DUP3 PUSH2 0x156 JUMP JUMPDEST PUSH2 0x244 JUMP JUMPDEST DUP3 MSTORE POP POP JUMP JUMPDEST PUSH0 PUSH2 0x26F DUP3 DUP6 PUSH2 0x24D JUMP JUMPDEST PUSH1 0x20 DUP3 ADD SWAP2 POP PUSH2 0x27F DUP3 DUP5 PUSH2 0x24D JUMP JUMPDEST PUSH1 0x20 DUP3 ADD SWAP2 POP DUP2 SWAP1 POP SWAP4 SWAP3 POP POP POP JUMP JUMPDEST PUSH32 0x4E487B7100000000000000000000000000000000000000000000000000000000 PUSH0 MSTORE PUSH1 0x12 PUSH1 0x4 MSTORE PUSH1 0x24 PUSH0 REVERT JUMPDEST PUSH0 PUSH2 0x2C6 DUP3 PUSH2 0x156 JUMP JUMPDEST SWAP2 POP PUSH2 0x2D1 DUP4 PUSH2 0x156 JUMP JUMPDEST SWAP3 POP DUP3 PUSH2 0x2E1 JUMPI PUSH2 0x2E0 PUSH2 0x28F JUMP JUMPDEST JUMPDEST DUP3 DUP3 MOD SWAP1 POP SWAP3 SWAP2 POP POP JUMP INVALID LOG2 PUSH5 0x6970667358 0x22 SLT KECCAK256 0xE8 PUSH18 0xC19CE4FE15FDB99F04FD9C952C7FD4809A55 0xE8 STOP NOT ORIGIN 0xCF AND 0xAD DUP5 0xC2 0x4E 0xF6 MULMOD PUSH5 0x736F6C6343 STOP ADDMOD BYTE STOP CALLER "
				},
				"gasEstimates": {
					"creation": {
						"codeDepositCost": "160400",
						"executionCost": "22319",
						"totalCost": "182719"
					},
					"external": {
						"getHash(uint256)": "infinite",
						"lastProof()": "2402",
						"proofOfWork(uint256)": "infinite"
					}
				},
				"methodIdentifiers": {
					"getHash(uint256)": "6b2fafa9",
					"lastProof()": "59d6b35b",
					"proofOfWork(uint256)": "5c10fe08"
				}
			},
			"storageLayout": {
				"storage": [
					{
						"astId": 3,
						"contract": "my-hardhat-project/SMARTCONTRACT/ProofOfWork.sol:ProofOfWork",
						"label": "lastProof",
						"offset": 0,
						"slot": "0",
						"type": "t_uint256"
					}
				],
				"types": {
					"t_uint256": {
						"encoding": "inplace",
						"label": "uint256",
						"numberOfBytes": "32"
					}
				}
			},
			"userdoc": {
				"kind": "user",
				"methods": {},
				"version": 1
			}
		}
	}
}